:100000000C9463000C94F6030C9423040C948B0062
:100010000C948B000C948B000C948B000C948B0034
:100020000C948B000C948B000C948B000C948B0024
:100030000C948B000C948B000C948B000C948B0014
:100040000C94D2040C948B000C948B000C948B00B9
:100050000C948B000C948B000C948B000C948B00F4
:100060000C947E0D0C948B00000000070002010030
:100070000003040600000000000000000102040864
:100080001020408001020408102001020408102002
:10009000040404040404040402020202020203032E
:1000A00003030303000000002300260029000000D2
:1000B0000000250028002B0000000000240027007D
:1000C0002A006803D50A11241FBECFEFD8E0DEBF97
:1000D000CDBF11E0A0E0B1E0E0E0F7E202C00590A2
:1000E0000D92AA37B107D9F712E0AAE7B1E001C033
:1000F0001D92AB39B107E1F710E0C6ECD0E004C0C7
:100100002297FE010E947A13C23CD107C9F70E94D0
:100110004A060C94AE0E0C940000DC01ED91FD91AA
:100120008081ED91FD919081ED91FD916C916370D5
:100130008E2309F064609F2309F06860EAEAF0E02A
:10014000E60FF11D659565956D936D917D918D918E
:100150009D91099423C01AC012C016C010C01EC0C1
:1001600009C014C013C006C019C009C00DC007C023
:100170000DC014C062507040804090400BC0615070
:1001800070408040904006C06E5F01C06F5F7F4F3F
:100190008F4F9F4F9E938E937E936E930895809181
:1001A000D9019091DA010C948D008091D701909142
:1001B000D8010C948D00CF93DF93EC018B85F894DC
:1001C000823018F4CE010E948D006F817885898578
:1001D0009A857894DF91CF910895823019F0833019
:1001E000C1F40AC07093D8016093D70141E050E098
:1001F00065ED70E080E009C07093DA016093D90189
:1002000041E050E06FEC70E081E00E94D60381E0B5
:10021000089580E0089520E042E060E18EEA91E0F8
:100220000E9465088EEA91E00E945E0864E089E918
:1002300091E00E94BB0960E089E991E00C94F80923
:1002400082E00E945004BC01882777FD8095982F9A
:100250000E94D50F9B01AC0160E070E080E894E45F
:100260000E94D50E20E030E040E251E40E943A0FB7
:100270000E94A20F84E1869F9001879F300D112478
:10028000C901089583E00E94500420E034E0281B57
:10029000390B37FF02C0295F3F4FC90123E0959515
:1002A00087952A95E1F708957F928F929F92AF925A
:1002B000BF92CF92DF92EF92FF920F931F93CF9353
:1002C000DF938EEA91E00E944709182F0E942001D7
:1002D000EC010E944201782E20910101309102012F
:1002E000C217D30721F480910001781661F021E054
:1002F00030E03093040120930301D0930201C093B6
:10030000010170920001112309F44FC110FF0BC0CD
:10031000F894109294011092950110929601109207
:10032000970178943CC112FF07C0672D89E991E0DD
:100330000E94F80969E008C013FF12C0672D89E91F
:1003400091E00E94F8096AE089E991E00E94BB0906
:10035000BE01882777FD8095982F0E9446051AC117
:1003600014FF8BC0209709F088C06AEF70E080E02E
:1003700090E00E944605672D89E991E00E94F80906
:100380006AE089E991E00E94BB095EE0E52E51E058
:10039000F52E0AE711E069E1C62E61E0D62E0E9433
:1003A0004201782E682F89E991E00E94F8098DE8D2
:1003B00091E00E94DB004B015C0140E060E08EEACE
:1003C00091E00E943108C501B4010E94D50F2BE3D2
:1003D00031E041E050E40E943A0F0E94A20F9F9347
:1003E0008F937F936F93FF92EF921F930F930E94CF
:1003F000B10E6AE771E08EEA91E00E94950640E056
:1004000061E08EEA91E00E943108672D70E080E0A3
:1004100090E00E94D50F20E030E040E151E40E94DE
:10042000611020E030E04FE753E40E943A0F20E0F3
:1004300030E040E05FE30E94D60E0E94A20F7F935F
:100440006F93DF92CF921F930F930E94B10E8EEAAB
:1004500091E00E9447092DB73EB7225F3F4F0FB68C
:10046000F8943EBF0FBE2DBF811194C06AEF70E0BB
:1004700080E090E00E94460592CF11FF96C0209741
:1004800009F093C06AEF70E080E090E00E944605BA
:10049000672D89E991E00E94F80969E089E991E016
:1004A0000E94BB093EE0E32E31E0F32E0AE711E0A3
:1004B0004DE2C42E41E0D42E0E944201782E682FD6
:1004C00089E991E00E94F8098DE891E00E94DB0043
:1004D0004B015C0140E060E08EEA91E00E9431084F
:1004E000C501B4010E94D50F2BE331E041E050E497
:1004F0000E943A0F0E94A20F9F938F937F936F9356
:10050000FF92EF921F930F930E94B10E6AE771E082
:100510008EEA91E00E94950640E061E08EEA91E06B
:100520000E943108672D70E080E090E00E94D50FB6
:1005300020E030E040E151E40E94611020E030E032
:100540004FE753E40E943A0F20E030E040E05FE3E1
:100550000E94D60E0E94A20F7F936F93DF92CF92DC
:100560001F930F930E94B10E8EEA91E00E944709FB
:100570002DB73EB7225F3F4F0FB6F8943EBF0FBE78
:100580002DBF811107C06AEF70E080E090E00E940B
:10059000460592CF64E089E991E00E94BB0981E0C1
:1005A00090E090930401809303018DE891E00E9414
:1005B000DB000E94D50F2BE331E041E050E40E94C4
:1005C0003A0F0E94A20F6B017C0180918B019091E8
:1005D0008C01AA2797FDA095BA2FC816D906EA065E
:1005E000FB0651F081E090E09093040180930301B9
:1005F000D0928C01C0928B018091030190910401F3
:10060000892B09F453C040E060E08EEA91E00E943B
:100610003108FF92EF92DF92CF9282E491E09F93B4
:100620008F930AE711E01F930F930E94B10EB80158
:100630008EEA91E00E94950641E060E08EEA91E04A
:100640000E943108672D70E080E090E00E94D50F95
:1006500020E030E040E151E40E94611020E030E011
:100660004FE753E40E943A0F20E030E040E05FE3C0
:100670000E94D60E0E94A20F7F936F93DF93CF93B9
:100680008DE491E09F938F931F930F930E94B10E7F
:10069000B8018EEA91E00E9495062DB73EB7205F23
:1006A0003F4F0FB6F8943EBF0FBE2DBF109204010E
:1006B00010920301DF91CF911F910F91FF90EF9066
:1006C000DF90CF90BF90AF909F908F907F900895D4
:1006D0008EEA91E00E94970663E089E991E00E942A
:1006E0007A0962E082E00E94DB0562E084E00E9419
:1006F000DB05E2E9F0E0E491F0E0EE0FFF1FEC55DE
:10070000FF4F8591949180938D0190938E01EEE738
:10071000F0E0E491E0939101E4E9F0E0E491F0E0AD
:10072000EE0FFF1FEC55FF4F8591949180938F0141
:1007300090939001E0E8F0E0E491E0939201109250
:10074000940110929501109296011092970180EDFC
:1007500097E00E946C05E0918D01F0918E019081EF
:1007600080919101982381E009F480E0E0918F016C
:10077000F0919001908120919201922309F0826082
:10078000809393016DE871E082E00E94ED00809318
:1007900098016DE871E084E00E94ED0020919801DD
:1007A00090E0820F911D8093980108958230E8F4C3
:1007B000E82FF0E0EE0FFF1FE653FE4F71836083DA
:1007C000813041F0809169008C7F842B8093690097
:1007D000E89A089580916900440F551F440F551FF2
:1007E000837F842B80936900E99A08951F920F926A
:1007F0000FB60F9211242F933F934F935F936F93F4
:100800007F938F939F93AF93BF93EF93FF938091C9
:10081000CA019091CB01892B29F0E091CA01F09196
:10082000CB010995FF91EF91BF91AF919F918F916E
:100830007F916F915F914F913F912F910F900FBEDC
:100840000F901F9018951F920F920FB60F921124C0
:100850002F933F934F935F936F937F938F939F93C8
:10086000AF93BF93EF93FF938091CC019091CD0113
:10087000892B29F0E091CC01F091CD010995FF91F0
:10088000EF91BF91AF919F918F917F916F915F9108
:100890004F913F912F910F900FBE0F901F90189581
:1008A0008E3008F08E5087702091050140E4249F1F
:1008B00090011124822B80937C0080917A008064C7
:1008C00080937A0080917A0086FDFCCF2091780099
:1008D00030917900932F80E0AC01422B9A01C9013D
:1008E00008951F93CF93DF93182FEB0161E00E94CF
:1008F000DB05209711F460E004C0CF3FD10539F447
:1009000061E0812FDF91CF911F910C941306E12FAD
:10091000F0E0E859FF4FE491E330B9F028F4E1301A
:1009200051F0E230B1F50CC0E63019F1E73049F191
:10093000E43079F514C084B5806884BDC7BD2EC08D
:1009400084B5806284BDC8BD29C080918000806864
:1009500080938000D0938900C09388001FC080914D
:100960008000806280938000D0938B00C0938A00C7
:1009700015C08091B00080688093B000C093B30030
:100980000DC08091B00080628093B000C093B4002D
:1009900005C0C038D1050CF0B3CFADCFDF91CF91FA
:1009A0001F9108951F920F920FB60F9211242F934B
:1009B0003F938F939F93AF93BF938091CE0190917C
:1009C000CF01A091D001B091D1013091D601232F58
:1009D0002D5F2D3720F40196A11DB11D05C0232FD9
:1009E0002A570296A11DB11D2093D6018093CE01F6
:1009F0009093CF01A093D001B093D1018091D20107
:100A00009091D301A091D401B091D5010196A11D7F
:100A1000B11D8093D2019093D301A093D401B093E0
:100A2000D501BF91AF919F918F913F912F910F90E1
:100A30000FBE0F901F9018950F931F939FB7F894B8
:100A40000091D2011091D3012091D4013091D501B0
:100A500086B5A89B06C08F3F21F00F5F1F4F2F4F19
:100A60003F4F9FBF322F212F102F0027080F111D3E
:100A7000211D311D42E0000F111F221F331F4A9517
:100A8000D1F7B801C9011F910F910895CF92DF925C
:100A9000EF92FF92CF93DF936B017C010E941C05C4
:100AA000EB010EC00E941C056C1B7D0B683E734061
:100AB00038F081E0C81AD108E108F108C851DC4FCC
:100AC000C114D104E104F10469F7DF91CF91FF90E3
:100AD000EF90DF90CF900895019739F0880F991F1C
:100AE000880F991F02970197F1F70895789484B5BC
:100AF000826084BD84B5816084BD85B5826085BD1A
:100B000085B5816085BDEEE6F0E0808181608083FF
:100B1000E1E8F0E0108280818260808380818160E2
:100B20008083E0E8F0E0808181608083E1EBF0E0A9
:100B3000808184608083E0EBF0E08081816080834D
:100B4000EAE7F0E080818460808380818260808336
:100B50008081816080838081806880831092C10061
:100B60000895833069F028F48130A1F0823011F5C6
:100B700014C08630B1F08730C1F08430D9F404C09D
:100B8000809180008F7703C0809180008F7D80935B
:100B90008000089584B58F7702C084B58F7D84BDB1
:100BA00008958091B0008F7703C08091B0008F7D51
:100BB0008093B0000895CF93DF9390E0FC01E45858
:100BC000FF4F4491FC01E057FF4F8491882341F18E
:100BD00090E0880F991FFC01E854FF4F2591349154
:100BE000D90182559F4FFC0185919491C82FD92F2F
:100BF0009FB7F8948C91611106C0409584238C9323
:100C00008881842308C0623041F4242F20958223F8
:100C10008C938881842B888302C0842B8C939FBF04
:100C2000DF91CF9108950F931F93CF93DF931F927E
:100C3000CDB7DEB7282F30E0F901E859FF4F849196
:100C4000F901E458FF4F1491F901E057FF4F049167
:100C50000023D1F0882321F069830E94B1056981C6
:100C6000E02FF0E0EE0FFF1FE255FF4F85919491CA
:100C7000DC019FB7F8948C91611103C0109581231A
:100C800001C0812B8C939FBF0F90DF91CF911F915B
:100C90000F9108950E9476050E940B01C0E0D0E0FC
:100CA0000E9454012097E1F30E940000F9CFCF92F7
:100CB000DF92EF92FF920F931F93CF93DF936C011C
:100CC000EB017A01E60EF71E00E010E00BC069911F
:100CD000D601ED91FC910190F081E02DC6010995BE
:100CE000080F191FCE15DF0591F7C801DF91CF91CD
:100CF0001F910F91FF90EF90DF90CF9008956115B5
:100D0000710581F0DB010D900020E9F7AD01415044
:100D10005109461B570BDC01ED91FC910280F381D8
:100D2000E02D099480E090E008950C947F06FC018A
:100D30001382128285E691E091838083128E148A59
:100D40008FE084838EE085838DE086838CE08783CB
:100D50008BE080878AE0818789E08287178681E03F
:100D6000808B82E0818B83E0828B84E0838B08958B
:100D7000262FFC01328D3F3F19F04B960C94AA0BA5
:100D8000642F822F0C9413060F931F93CF93DF933E
:100D9000062FEC016B9611E062FB442740F94127D6
:100DA00068E0CE010E94AA0B01FB442740F94127CD
:100DB00067E0CE010E94AA0B402F4170412766E0F8
:100DC000CE01DF91CF911F910F910C94AA0B262F8A
:100DD000FC01328D3F3F19F04B960C94100B642FA1
:100DE000822F0C94DB05CF93DF93EC0140E06E8102
:100DF0000E94B80681E090E00E946C0541E06E819F
:100E0000CE010E94B80681E090E00E946C0540E0AF
:100E10006E81CE010E94B80684E690E0DF91CF910A
:100E20000C946C05AF92BF92CF92DF92EF92FF923B
:100E30000F931F93CF93DF93EC01C62E8A8D8F3FC4
:100E400009F476C07E018BE1E80EF11CC7010E9417
:100E5000650B9C0140E050E0E1E0F0E06C2D70E0BB
:100E6000DE01A40FB51F1796AC91CC24C394D12CEE
:100E7000CF010A2E02C0880F991F0A94E2F78095CD
:100E8000909528233923CB01042E02C09595879590
:100E90000A94E2F78170992702C0880F991FAA95DA
:100EA000E2F7282B392B4F5F5F4F44305105C1F6D5
:100EB00086010E8002C0000F111F0A94E2F7009510
:100EC000109502231323B801C7010E948F0B81E004
:100ED00090E00E946C0556010E8002C0AA0CBB1C5B
:100EE0000A94E2F7A02AB12AB501C7010E948F0B2C
:100EF00081E090E00E946C05B6010E8002C0660F92
:100F0000771F0A94E2F7609570956A217B21C701EB
:100F10000E948F0B84E690E0DF91CF911F910F919B
:100F2000FF90EF90DF90CF90BF90AF900C946C0546
:100F300000E010E0D12C7E01E00EF11E41E0F7014F
:100F40006781CE010E94E706A601002E02C05595DA
:100F500047950A94E2F741705527F7016781CE0162
:100F60000E94B8060F5F1F4F0430110521F7CE0114
:100F7000DF91CF911F910F91FF90EF90DF90CF9075
:100F8000BF90AF900C94F306CF92DF92EF92FF9256
:100F90000F931F93CF93DF938C01C0E0D0E0C62E58
:100FA000D12C7801EC0EFD1E41E0F7016781C801EC
:100FB0000E94E706A6010C2E02C0559547950A949B
:100FC000E2F741705527F7016781C8010E94B80612
:100FD0002196C830D10529F7C801DF91CF911F9123
:100FE0000F91FF90EF90DF90CF900C94F3061F933A
:100FF000CF93DF93EC01162F6C810E94B8066D81B0
:101000006F3F21F040E0CE010E94B8068C89612F2D
:1010100084FF06C0CE01DF91CF911F910C94C407CD
:1010200070E094E0759567959A95E1F7CE010E947E
:101030001207612FCE01DF91CF911F910C941207FF
:1010400041E00E94F70781E090E0089540E00C94B1
:10105000F707FC016589262F2460258B6C600C94B2
:101060002608CF93DF93CDB7DEB728970FB6F89455
:10107000DEBF0FBECDBF28E0E6E0F1E0DE01119655
:1010800001900D922A95E1F7FC01208D241710F4B0
:10109000422F4150FE013196E40FF11DE40FF11D86
:1010A0002081260F2068622F28960FB6F894DEBFA5
:1010B0000FBECDBFDF91CF910C94260861E00E9456
:1010C000260880ED97E00C946C05AF92BF92CF920A
:1010D000DF92EF92FF920F931F93CF93DF93EC0178
:1010E000B42EA22E8A8D8F3F29F481E08B1508F44F
:1010F00059C05BC08BED91E00E94990A8E01055E9C
:101100001F4FC8010E940D0B41E068E0C8010E941A
:10111000100B41E066E0C8010E94100B41E067E05F
:10112000C8010E94100B67E0CE010E94C4066D81C9
:10113000662321F041E0C8010E94100B41E06C8160
:10114000C8010E94100B41E06E81C8010E94100B83
:10115000E12CF12CFE01EE0DFF1D41E06781C8017D
:101160000E94100BEFEFEE1AFE0AF4E0EF16F10406
:1011700089F7E12CF12C6E01CE0CDF1C40E0F6016A
:101180006785C8010E94100B41E0F6016785C80120
:101190000E94120CFFEFEF1AFF0A85E0E816F10437
:1011A00051F7A3CF8C8988608C8BB88E198EAA20BA
:1011B00031F0E1E0BE1203C08C8984608C8B80E545
:1011C00093EC0E946C0540E06C81CE010E94B80651
:1011D00040E06E81CE010E94B8066D816F3F21F024
:1011E00040E0CE010E94B8066C8964FD1DC063E03A
:1011F000CE010E94120784E991E10E946C0563E030
:10120000CE010E94120784E991E10E946C0563E01F
:10121000CE010E94120786E990E00E946C0562E010
:10122000CE010E94120716C06062CE010E942608FD
:1012300084E991E10E946C056C896062CE010E9494
:10124000260886E990E00E946C056C896062CE01F8
:101250000E9426086C896062CE010E94260884E004
:101260008D8BCE010E942908CE010E945E0882E08B
:101270008E8B66E0CE01DF91CF911F910F91FF9091
:10128000EF90DF90CF90BF90AF900C942608DF9244
:10129000EF92FF920F931F93CF93DF938C01C0E0E7
:1012A000D0E02FE1D22E7C018BE1E80EF11CF80199
:1012B000EC0FFD1F6785C7010E94680C282F30E0E6
:1012C0000C2E02C0220F331F0A94E2F720953095AE
:1012D0008D2D90E028233923D22E2196C530D105BB
:1012E00031F7822FDF91CF911F910F91FF90EF90F7
:1012F000DF900895CF93DF93EC01623089F018F40A
:101300006130B1F505C0633019F06B3089F508C064
:1013100083E0888B89E0898B8CE08A8B8EE007C024
:101320008BE0888B88E0898B8DE08A8B8FE08B8BBC
:1013300061E088890E94DB0561E089890E94DB0504
:1013400061E08A890E94DB0560E08B890E94DB05F1
:1013500040E050E060EA7BE3488759876A877B87F3
:1013600043E353E363ED7FE34C875D876E877F87BD
:10137000DF91CF9108951F93CF93DF93EC01162F48
:10138000862F8370833069F1862F8C708C3049F101
:1013900060FF08C061E08A890E9413068C898C7006
:1013A00081608C8B11FF08C060E08A890E9413065F
:1013B0008C898C7082608C8B13FF08C060E08989F7
:1013C0000E9413068C89837088608C8B12FF0BC07F
:1013D00061E089890E9413068C89837084608C8BFC
:1013E00002C080E001C081E0DF91CF911F9108959C
:1013F00070E0FC0180890C94710420910B0230E0B4
:1014000080910C02281B3109C901089580910C02BA
:1014100090910B02891750F4E82FF0E0E35FFD4F45
:10142000208130E08F5F80930C0202C02FEF3FEFEE
:10143000C9010895E0910C0280910B02E81730F485
:10144000F0E0E35FFD4F208130E002C02FEF3FEF7F
:10145000C90108950895CF92DF92EF92FF920F9302
:101460001F93CF93DF937C01CB018A012091E70189
:10147000222391F0EB016B01C40ED51E09C06991C6
:10148000D701ED91FC910190F081E02DC701099504
:10149000CC15DD05A1F703C0642F0E94550DC801CE
:1014A000DF91CF911F910F91FF90EF90DF90CF9040
:1014B0000895CF93DF931F92CDB7DEB76983209154
:1014C000E7012223D1F02091E801203240F021E011
:1014D00030E0FC013383228320E030E015C08091AE
:1014E000E901E82FF0E0E651FE4F998190838F5F8C
:1014F0008093E9018093E80105C061E0CE01019687
:101500000E94550D21E030E0C9010F90DF91CF918D
:101510000895FC011382128248EE53E060E070E00F
:1015200044835583668377838DE691E0918380833E
:10153000089510920C0210920B021092E901109281
:10154000E8010C949F0C862F413208F040E26DE0D8
:1015500072E00E94BD0C10920C0280930B02089561
:1015600021E00C94A30A81E08093E70160930A02D2
:101570001092E9011092E80108950C94B30A0F93B8
:10158000062F21E04091E8016AEE71E080910A02A5
:101590000E94020D1092E9011092E8011092E701F9
:1015A0000F91089561E00C94BF0A8BED91E00C94CB
:1015B000890A682F8BED91E00C94590ACF93DF9341
:1015C000EC01683008F067E068838BED91E00E94E1
:1015D000990A6881606270E08BED91E00E94BD0A1B
:1015E00080E00E94D90A8FEF0E94D90A8BED91E02A
:1015F0000E94D20A6881606270E08BED91E00E94E7
:10160000BD0A81E00E94D90A8FEF0E94D90A8BEDB2
:1016100091E0DF91CF910C94D20A60E00C94DE0A45
:10162000FF920F931F93CF93DF93EC01162FF42EAD
:10163000603108F044C0683018F0185001E001C073
:1016400000E06881606270E08BED91E00E94BD0A6D
:10165000802F0E94D90A8BED91E00E94D20A688106
:10166000606241E050E070E08BED91E00E94B00AD2
:101670008BED91E00E94060A21E030E001C0220FCC
:101680001A95EAF7122FF11002C0182B02C010951C
:1016900018236881606270E08BED91E00E94BD0AC2
:1016A000802F0E94D90A812F0E94D90A8BED91E0E8
:1016B000DF91CF911F910F91FF900C94D20ADF918F
:1016C000CF911F910F91FF900895CF93DF93EC017D
:1016D0006881606270E08BED91E00E94BD0A82E15A
:1016E0000E94D90A8BED91E00E94D20A6881606263
:1016F00042E050E070E08BED91E00E94B00A8BED8B
:1017000091E00E94060AC82F8BED91E00E94060A24
:10171000382F22272C2BC901DF91CF910895CF9329
:10172000DF93D62FC72FFC016081606270E08BEDE4
:1017300091E00E94BD0A82E10E94D90A8D2F0E9489
:10174000D90A8C2F0E94D90A8BED91E0DF91CF91BD
:101750000C94D20ACF92DF92FF920F931F93CF93F4
:10176000DF931F92CDB7DEB76C01162FF42E6031D8
:1017700008F04FC0683020F0185025E103E102C0A6
:1017800024E102E1F6016081606270E08BED91E09E
:1017900029830E94BD0A2981822F0E94D90A8BEDDC
:1017A00091E00E94D20AF6016081606241E050E05F
:1017B00070E08BED91E00E94B00A8BED91E00E9409
:1017C000060AF1E021E030E001C0220F1A95EAF7A5
:1017D000122FFF1202C0182B02C010951823F60119
:1017E0006081606270E08BED91E00E94BD0A802F05
:1017F0000E94D90A812F0E94D90A8BED91E00F90A7
:10180000DF91CF911F910F91FF90DF90CF900C94BB
:10181000D20A0F90DF91CF911F910F91FF90DF902F
:10182000CF900895FF920F931F93CF93DF93EC0116
:10183000162FF42E603108F045C0683018F01850AB
:101840000DE001C00CE06881606270E08BED91E01A
:101850000E94BD0A802F0E94D90A8BED91E00E9460
:10186000D20A6881606241E050E070E08BED91E067
:101870000E94B00A8BED91E00E94060A91E021E0FF
:1018800030E001C0220F1A95EAF7122FF91202C0B8
:10189000182B02C0109518236881606270E08BEDF0
:1018A00091E00E94BD0A802F0E94D90A812F0E94D8
:1018B000D90A8BED91E0DF91CF911F910F91FF90AD
:1018C0000C94D20ADF91CF911F910F91FF90089550
:1018D0000F931F93CF93DF93EC01162F603148F5E0
:1018E000683018F0185003E101C002E168816062BD
:1018F00070E08BED91E00E94BD0A802F0E94D90A12
:101900008BED91E00E94D20A6881606241E050E074
:1019100070E08BED91E00E94B00A8BED91E00E94A7
:10192000060A992702C0959587951A95E2F7817066
:1019300001C080E0DF91CF911F910F910895109227
:10194000360281E0809334021092330261E082E13A
:101950000E94130661E083E10E941306E9EBF0E0C8
:1019600080818E7F808380818D7F808388E48093D7
:10197000B80085E48093BC000895413208F03FC070
:10198000909136029111FCCF91E090933602209312
:1019900034022FEF20932D0210923202242F215077
:1019A000209331029093350290913502880F892B54
:1019B0008093350280913302813041F410923302DA
:1019C000809135028093BB0085EC01C085EE809349
:1019D000BC00809136028130E1F38091320284179D
:1019E00010F44091320227E332E0FB01D90102C03A
:1019F0008D9181938A2F821B8417D0F301C040E020
:101A0000842F08950F93413208F046C0909136021A
:101A10009111FCCF92E090933602009334029FEF35
:101A200090932D021092320240933102FB0167E342
:101A300072E0DB0102C091919D939A2F961B94173F
:101A4000D0F31092350290913502880F892B809344
:101A5000350280913302813041F41092330280913B
:101A600035028093BB0085EC01C085EE8093BC00FD
:101A7000222321F0809136028230E1F380912D0201
:101A80008F3F61F080912D02803251F080912D02C4
:101A9000803341F483E007C081E005C080E003C0EB
:101AA00082E001C084E00F910895613298F42091A2
:101AB0003602243089F460932F02FC0187E592E01E
:101AC000DC0102C021912D932A2F281B2617D0F369
:101AD00080E0089581E0089582E0089585ED809387
:101AE000BC008091BC0084FDFCCF109236020895AA
:101AF00085EC8093BC001092360208951F920F92DD
:101B00000FB60F9211242F933F934F935F936F93D0
:101B10007F938F939F93AF93BF93EF93FF938091A6
:101B2000B900887F803609F49FC058F5883209F4DF
:101B30005BC090F4803109F452C038F4882309F472
:101B4000F8C0883009F0F9C04AC0883109F44CC0A7
:101B5000803209F0F2C05CC0803409F46BC038F404
:101B6000803309F455C0883309F0E7C054C080358C
:101B700009F454C0883509F462C0883409F0DDC026
:101B8000DAC0883909F4CBC0A8F4883709F46CC0EE
:101B900038F4883609F468C0803709F0CEC064C0D4
:101BA000883809F4BCC0803909F464C0803809F071
:101BB000C4C060C0803B09F48AC038F4803A09F49C
:101BC0006BC0883A09F0B9C082C0803C09F4ABC050
:101BD000883C09F4A8C0883B09F0AFC08DC0809153
:101BE00035028093BB0012C0909132028091310285
:101BF000981788F580913202E82FF0E0E95CFD4FFC
:101C000090819093BB008F5F8093320285EC88C0F7
:101C100080932D0290C080932D0256C08091320295
:101C20009091BB00E82FF0E0E95CFD4F90838F5F5F
:101C30008093320290913202809131026DC0809186
:101C400032029091BB00E82FF0E0E95CFD4F9083F9
:101C50008F5F809332028091340281116CC081E0E9
:101C60008093330284EA60C083E08093360210924E
:101C70002E02CCCF80912E02803208F050C080918D
:101C80002E029091BB00E82FF0E0E558FD4F9083C5
:101C90008F5F80932E02BACF80912E02803230F473
:101CA000E0912E02F0E0E558FD4F10820E946E0D8B
:101CB00060912E02E0917702F091780270E08BE75C
:101CC00092E0099510922E020E94780D36C084E0B1
:101CD000809336021092300210922F02E091790226
:101CE000F0917A02099580912F02811105C081E05F
:101CF00080932F021092570280913002E82FF0E07B
:101D0000E95AFD4F90819093BB008F5F8093300222
:101D10009091300280912F02981708F477CF85E8D0
:101D20008093BC000AC085EC8093BC001092360200
:101D300004C010922D020E946E0DFF91EF91BF9191
:101D4000AF919F918F917F916F915F914F913F9153
:101D50002F910F900FBE0F901F901895F8940C9430
:101D60007E13A0E1B0E0E7EBFEE00C944F130F8987
:101D7000188D86E08C831A8309838FEF9FE79E83FB
:101D80008D83AE01455E5F4F588B4F87698D7A8D8D
:101D9000CE0101960E94C410EF81F885E00FF11F7B
:101DA00010826096E4E00C946B135058BB27AA276E
:101DB0000ED04DC13ED130F043D120F031F49F3FE1
:101DC00011F41EF433C10EF4E095E7FB29C1E92FAD
:101DD0004FD180F3BA17620773078407950718F08D
:101DE00071F49EF567C10EF4E0950B2EBA2FA02D6D
:101DF0000B01B90190010C01CA01A0011124FF27B8
:101E0000591B99F0593F50F4503E68F11A16F040B2
:101E1000A22F232F342F4427585FF3CF46953795B1
:101E20002795A795F0405395C9F77EF41F16BA0B76
:101E3000620B730B840BBAF09150A1F0FF0FBB1F24
:101E4000661F771F881FC2F70EC0BA0F621F731F6D
:101E5000841F48F4879577956795B795F7959E3FCA
:101E600008F0B3CF9395880F08F09927EE0F979558
:101E7000879508950CD0EBC0E3D040F0DAD030F075
:101E800021F45F3F19F0CCC0511115C1CFC0F0D083
:101E900098F39923C9F35523B1F3951B550BBB2731
:101EA000AA2762177307840738F09F5F5F4F220FDE
:101EB000331F441FAA1FA9F333D00E2E3AF0E0E8D7
:101EC00030D091505040E695001CCAF729D0FE2F23
:101ED00027D0660F771F881FBB1F261737074807B5
:101EE000AB07B0E809F0BB0B802DBF01FF2793586B
:101EF0005F4F2AF09E3F510568F092C0DCC05F3F03
:101F0000ECF3983EDCF3869577956795B795F79552
:101F10009F5FC9F7880F911D9695879597F908954A
:101F2000E1E0660F771F881FBB1F621773078407E6
:101F3000BA0720F0621B730B840BBA0BEE1F88F7F5
:101F4000E095089504D06894B111B5C0089598D073
:101F500088F09F5790F0B92F9927B751A0F0D1F092
:101F6000660F771F881F991F1AF0BA95C9F712C01C
:101F7000B13081F09FD0B1E008959CC0672F782FD9
:101F80008827B85F39F0B93FCCF386957795679588
:101F9000B395D9F73EF490958095709561957F4FF4
:101FA0008F4F9F4F0895E89409C097FB3EF490959A
:101FB0008095709561957F4F8F4F9F4F9923A9F022
:101FC000F92F96E9BB279395F695879577956795B1
:101FD000B795F111F8CFFAF4BB0F11F460FF1BC0F5
:101FE0006F5F7F4F8F4F9F4F16C0882311F096E988
:101FF00011C0772321F09EE8872F762F05C0662336
:1020000071F096E8862F70E060E02AF09A95660FEE
:10201000771F881FDAF7880F9695879597F90895A7
:1020200097F99F6780E870E060E008959FEF80EC8B
:10203000089500240A94161617061806090608952E
:1020400000240A9412161306140605060895092E94
:102050000394000C11F4882352F0BB0F40F4BF2B03
:1020600011F460FF04C06F5F7F4F8F4F9F4F089543
:1020700057FD9058440F551F59F05F3F71F0479539
:10208000880F97FB991F61F09F3F79F0879508951E
:10209000121613061406551FF2CF4695F1DF08C03D
:1020A000161617061806991FF1CF8695710561055A
:1020B00008940895E894BB2766277727CB0197F902
:1020C00008950BD0C4CFB5DF28F0BADF18F0952300
:1020D00009F0A6CFABCF1124EECFCADFA0F3959FB6
:1020E000D1F3950F50E0551F629FF001729FBB27FF
:1020F000F00DB11D639FAA27F00DB11DAA1F649FAB
:102100006627B00DA11D661F829F2227B00DA11D5D
:10211000621F739FB00DA11D621F839FA00D611DE3
:10212000221F749F3327A00D611D231F849F600D04
:10213000211D822F762F6A2F11249F5750408AF03D
:10214000E1F088234AF0EE0FFF1FBB1F661F771FC9
:10215000881F91505040A9F79E3F510570F060CF05
:10216000AACF5F3FECF3983EDCF3869577956795B1
:10217000B795F795E7959F5FC1F7FE2B880F911DE7
:102180009695879597F90895ACE0B0E0EAECF0E118
:102190000C9441137C016B018A01FC0117821682A9
:1021A000838181FFC7C188248394912C8C0E9D1E4E
:1021B000F7019381F60193FD859193FF81916F0162
:1021C000882309F4B3C1853239F493FD859193FFD7
:1021D00081916F01853229F4B70190E00E94B71216
:1021E000E7CF712C312C20E02032A8F48B3261F043
:1021F00028F4803251F0833271F40BC08D3239F003
:10220000803349F4216028C02260246025C0286002
:1022100023C0206121C027FD27C0382F30533A301A
:1022200078F426FF06C0FAE07F9E300D1124732E4D
:1022300013C08AE0389E300D1124332E20620CC06A
:102240008E3221F426FD72C1206406C08C3611F452
:10225000206802C0883641F4F60193FD859193FF12
:1022600081916F018111C0CF982F9554933018F050
:102270009052933028F40C5F1F4FFFE3F9830DC099
:10228000833631F0833771F0833509F05EC023C0A7
:10229000F801808189830E5F1F4F66246394712C3F
:1022A000540115C02801F2E04F0E511CF801A08026
:1022B000B18026FF03C0672D70E002C06FEF7FEF93
:1022C000C5012C870E94AC123C0182012C856FE76E
:1022D000262E222218C02801F2E04F0E511CF801D0
:1022E000A080B18026FF03C0672D70E002C06FEFB1
:1022F0007FEFC5012C870E94A1123C012C8550E87C
:10230000252E222A820123FC1CC006C0B70180E2D0
:1023100090E00E94B7123A94832D90E068167906F7
:10232000A8F30FC0F50127FC859127FE81915F017D
:10233000B70190E00E94B71231103A94F1E06F1AA1
:1023400071086114710471F7EEC0843611F089369A
:1023500041F5F80127FF07C0608171818281938177
:102360000C5F1F4F08C060817181882777FD8095C1
:10237000982F0E5F1F4F4FE6642E622297FF09C011
:1023800090958095709561957F4F8F4F9F4FF0E8A6
:102390006F2A2AE030E0A4010E94E312A82EA818B8
:1023A00044C0853731F43FEEB32EB2222AE030E04C
:1023B00024C099EFB92EB2228F36B9F020F48835B7
:1023C00009F0B4C00DC0803721F0883709F0AEC0E5
:1023D00002C020E1B22AB4FE0BC084E0B82A08C0D3
:1023E00024FF09C0E6E0BE2A06C028E030E005C0B0
:1023F00020E130E002C020E132E0F801B7FE07C082
:1024000060817181828193810C5F1F4F06C0608162
:10241000718180E090E00E5F1F4FA4010E94E312E3
:10242000A82EA8188FE7682E6B2066FE0BC0362DED
:102430003E7FA71450F464FE0AC062FC08C0362D2B
:102440003E7E05C0BA2C362D03C0BA2C01C0B72C75
:1024500034FF0DC0FE01EA0DF11D8081803311F4BF
:10246000397E09C032FF06C0B394B39404C0832FF1
:10247000867809F0B39433FD14C030FF0FC07A2C76
:10248000B31460F4730C7B18B32C08C0B70180E25E
:1024900090E03C870E94B712B3943C85B314B0F32C
:1024A00004C0B31410F43B1801C0312C34FF12C027
:1024B000B70180E390E03C870E94B7123C8532FF71
:1024C0001EC031FF03C088E590E002C088E790E0BD
:1024D000B7010CC0832F867891F031FD02C080E2F5
:1024E00001C08BE237FD8DE2B70190E00E94B71288
:1024F00006C0B70180E390E00E94B7127A94A71457
:10250000C0F3AA94F401EA0DF11DB701808190E0B7
:102510000E94B712A110F5CF06C0B70180E290E08B
:102520000E94B7123A943110F8CF42CEF7012681BB
:10253000378102C02FEF3FEFC9012C96E2E10C94E6
:102540005D13FC010590615070400110D8F7809533
:1025500090958E0F9F1F0895FC016150704001906F
:102560000110D8F7809590958E0F9F1F08950F93B7
:102570001F93CF93DF938C01EB018B8181FD03C00F
:102580000FEF1FEF1AC082FF0DC02E813F818C819B
:102590009D812817390764F4E881F9810193F98353
:1025A000E88306C0E885F985802F0995892B41F7D6
:1025B0008E819F8101969F838E83C801DF91CF9189
:1025C0001F910F910895FA01AA27283051F1203167
:1025D00081F1E8946F936E7F6E5F7F4F8F4F9F4FB7
:1025E000AF4FB1E03ED0B4E03CD0670F781F891FF9
:1025F0009A1FA11D680F791F8A1F911DA11D6A0FC7
:10260000711D811D911DA11D20D009F468943F9179
:102610002AE0269F11243019305D3193DEF6CF0178
:102620000895462F4770405D4193B3E00FD0C9F73E
:10263000F6CF462F4F70405D4A3318F0495D31FDAB
:102640004052419302D0A9F7EACFB4E0A6959795FE
:10265000879577956795BA95C9F7009761057105D4
:1026600008959B01AC010A2E06945795479537951E
:102670002795BA95C9F7620F731F841F951FA01D78
:1026800008952F923F924F925F926F927F928F9216
:102690009F92AF92BF92CF92DF92EF92FF920F93F1
:1026A0001F93CF93DF93CDB7DEB7CA1BDB0B0FB6FB
:1026B000F894DEBF0FBECDBF09942A8839884888B8
:1026C0005F846E847D848C849B84AA84B984C8844E
:1026D000DF80EE80FD800C811B81AA81B981CE0F45
:1026E000D11D0FB6F894DEBF0FBECDBFED0108952A
:1026F000EE0FFF1F0590F491E02D0994F894FFCFA1
:10270000FFFFFF0100010000400014005400706F43
:10271000733A253664756D20006A6F673A736C658D
:1027200077205E2076656C3A25303164006A6F67E9
:102730003A736C65772076202076656C3A253031C7
:102740006400706F733A25303664756D006A6F6788
:102750003A253034646D732076656C3A25303164E7
:1027600000000000002008570600000000590A2B56
:0A2770000AFD09060A1A0A2A0A00E7
:00000001FF
